:020000040800F2
:10000000606D0020CD03000807620008C5220008CB
:10001000056200086B1B00087B7B000800000000E5
:1000200000000000000000000000000015030008B0
:10003000D920000800000000690300088D64000852
:10004000E7030008E7030008E7030008E7030008E8
:10005000E7030008E7030008E7030008E7030008D8
:10006000E7030008E7030008E7030008E7030008C8
:10007000E7030008E7030008E7030008E7030008B8
:10008000E7030008E7030008E7030008E7030008A8
:10009000E7030008E7030008E7030008E703000898
:1000A000E7030008E7030008E7030008E703000888
:1000B000E7030008FD640008E7030008E703000801
:1000C000E7030008E7030008E7030008E703000868
:1000D000E70300084D660008E7030008E70300088F
:1000E000E7030008E7030008E7030008E703000848
:1000F000E7030008E7030008E7030008E703000838
:10010000E7030008E7030008E7030008E703000827
:10011000E7030008E7030008E7030008E703000817
:10012000E7030008E7030008E7030008E703000807
:10013000E7030008E7030008E7030008E7030008F7
:10014000E7030008E7030008E703000881620008EE
:10015000E7030008E7030008E7030008E7030008D7
:10016000E7030008E7030008E7030008E7030008C7
:10017000E70300088D620008E7030008E7030008B2
:10018000E7030008E703000800F002F800F0B2F807
:100190000AA090E8000C82448344AAF10107DA45E2
:1001A00001D100F0A7F8AFF2090EBAE80F0013F082
:1001B000010F18BFFB1A43F001031847D4BB00001E
:1001C000F4BB00000A444FF0000C10F8013B13F0A0
:1001D000070408BF10F8014B1D1108BF10F8015BA0
:1001E000641E05D010F8016B641E01F8016BF9D193
:1001F00013F0080F1EBF10F8014BAD1C0C1B09D1EA
:100200006D1E58BF01F801CBFAD505E014F8016B5B
:1002100001F8016B6D1EF9D59142D6D370470000ED
:100220000023002400250026103A28BF78C1FBD8FF
:10023000520728BF30C148BF0B6070476E2900F0DD
:100240007B83702900F0A78166290AF05481652913
:100250000AF0518167290AF04E816129AFF30080CD
:1002600003681B0A28BF41F08001692900F018814A
:10027000642900F01581752900F012816F2900F0C2
:100280007384782900F07381E92900F00D84E42952
:1002900000F00A84F52900F00784EF2900F070844B
:1002A000F82900F072810368DB0928BF41F0800162
:1002B000632900F07C83732900F08183E32900F037
:1002C0001987F32900F01E87002070471FB50AF038
:1002D0000DF900F093FF04000020002109F0B2FFA7
:1002E000401C60600020002109F096FFE0601FBD07
:1002F00010B510BD00F055FF1146FFF7E7FF07F0FE
:1003000069FD01F02DF803B4FFF7F2FF03BC07F01D
:1003100004FD00002A4B19680868B0E8F04F80F32C
:100320000988BFF36F8F4FF0000080F3118870478A
:100330000000000006480068006880F3088862B684
:1003400061B6BFF34F8FBFF36F8F00DF00BF00BFF9
:1003500008ED00E0DFF80C00016841F47001016075
:10036000704700BF88ED00E0EFF30980BFF36F8FA7
:10037000134B1A681EF0100F08BF20ED108A20E9F9
:10038000F04F106008B44FF0500080F31188BFF3B5
:100390004F8FBFF36F8F09F045F84FF0000080F3E7
:1003A000118808BC19680868B0E8F04F1EF0100FFB
:1003B00008BFB0EC108A80F30988BFF36F8F7047D5
:1003C00050000020EFF30580704700000948804787
:1003D00009480047FEE7FEE7FEE7FEE7FEE7FEE727
:1003E000FEE7FEE7FEE7FEE704480549054A064B3F
:1003F00070470000A16400088901000860670020C0
:10040000606D002060690020606900207047000076
:100410001CB50C46064B7B4469460090204600F014
:10042000A4FA04460020694600F0B2FA20461CBD3A
:10043000770500000FB4044910B503AA029800F034
:10044000C3FA10BC5DF814FB3C00002070B50C46EC
:100450000546012A05D02878800600D5EA690023E0
:1004600002E0012305E05B1C934202D2E05C00281D
:10047000F9D1A869E618C01AA861286A1844286248
:10048000284600F0C7F904E0D5E9012114F8010B72
:100490009047B442F8D3284600F0D2F970BD00006E
:1004A0002DE9F0410646002410687529314616A54D
:1004B00010D000F0D6F9002802DA404213A507E078
:1004C00031688A0701D512A502E0490704D511A5B4
:1004D000012401E000F0CEF900210A2206F12407F0
:1004E00009E0B0FBF2FCB0FBF2F302FB1C00303081
:1004F00078541846491C0028F3D123462A46304632
:10050000BDE8F04100F0BFB9000000002D00000080
:100510002B00000020000000F0B40D460188090502
:1005200002D5214C7C4402E01F4C7C440E34002157
:1005300000F1240608E002F00F071209E75D42EA25
:1005400003721B097754491C52EA0307F3D102785E
:100550000023120704D5702D06D009B102231134EF
:100560002246F0BC00F08FB901231034F8E770B5D3
:1005700004460D462146106800F07CF902462946E3
:100580002046BDE870400023C6E7D21D22F00703D5
:10059000D3E90023C0E70368126843F02003036037
:1005A0000823C3610023B7E792B700002DE9F05F8D
:1005B000894604464FF0000ADFF874B1FB44C0F8E6
:1005C00020A02046E1688847002874D0252806D05E
:1005D000D4E901219047206A401C2062F1E70026FF
:1005E0005F462046E16888472028054607DB312D15
:1005F00005D2781910F8200C08B10643F1E7B007CE
:1006000001D526F00406C4F81CA00027C4F818A0E1
:100610002A2D09D0284607F079FB38B304EB870868
:10062000303DC8F8185019E059F8041B204604EB77
:1006300087029161E1688847012F054618D1E0697A
:10064000002820DA26F020061DE0D8F8180000EB7C
:10065000800005EB40003038C8F818002046E168FB
:100660008847054607F052FB0028EED1012F0AD03B
:100670002E2D08D12046E16888477F1C0546022FB1
:1006800046F02006C4DBA069002803DA404246F0A9
:100690000106A061F00701D026F010066C2D0BD0EA
:1006A000682D09D04C2D39D06A2D35D0742D35D018
:1006B0007A2D33D016E038E0E1682F46204688478F
:1006C000B842054609D16C2F26D04FF48060E1680E
:1006D000064320468847054604E06C2F1AD04FF4A5
:1006E000807006430DB3A5F14100192802D82035CA
:1006F00046F400664A462946204626604E46FFF7E5
:100700009DFD80B101280BD0F61D26F0070000F1F9
:10071000080956E74020E4E78020D8E70020D6E724
:1007200006F104094DE7284652E7206ABDE8F09F2C
:1007300022B7000010B5431C02E010F8011B71B194
:100740008107FAD14FF0013202C88C1A8C4314EAA7
:10075000C211F9D0C01A0A0603D0C01E10BDC01ABB
:1007600010BD0A0401D0801E10BD0902FCD0401E3D
:1007700010BD032A40F2308010F0030C00F0158009
:1007800011F8013BBCF1020F624498BF11F801CB94
:1007900000F8013B38BF11F8013BA2F1040298BFF9
:1007A00000F801CB38BF00F8013B11F0030300F063
:1007B000F181083AC0F0088051F8043B083A51F83A
:1007C00004CBA0E80810F5E7121D5CBF51F8043B0C
:1007D00040F8043BAFF30080D20724BF11F8013B7F
:1007E00011F801CB48BF11F8012B24BF00F8013BE1
:1007F00000F801CB48BF00F8012B704702F0FF035F
:1008000043EA032242EA024200F0F8B97047704717
:100810007047704770B5044685690068C10601D508
:10082000302600E02026C00707D070BDD4E90121A2
:1008300030469047206A401C20626D1EF6D570BD80
:1008400070B5044685690078C00707D170BDD4E94A
:10085000012120209047206A401C20626D1EF6D5A1
:1008600070BD09684A0501D540B27047C905FCD57D
:1008700000B2704709684A0501D5C0B27047C90582
:10088000FCD580B270472DE9F0470D469946924657
:10089000044600F124080168880604D5E06921F0C7
:1008A0001001216000E00120A84201DD471B00E0AB
:1008B0000027A1697A1902EB0900081AA0612078C3
:1008C000C00602D42046FFF7A5FF002608E0D4E9C1
:1008D00001211AF806009047206A401C761C20620D
:1008E0004E45F4DB2078C0060AD52046FFF792FF7C
:1008F00006E0D4E9012130209047206A401C2062A4
:10090000381EA7F10107F4DC07E0D4E9012118F84B
:1009100005009047206A401C2062281EA5F10105B1
:10092000F3DC2046FFF78CFF2078000602D502207A
:10093000BDE8F0870120FBE711680268006A5305F3
:1009400001D508700AE0D30501D5088006E013063A
:1009500003D5C217C1E9000200E00860012070471A
:1009600001694A1C02610878704700B58FB0CDE973
:1009700001310021059105497944CDE90310114663
:100980006846FFF713FE0FB000BD0000E5FFFFFF54
:100990000A6802F8010B0A60704710B5436913B189
:1009A000AFF3008001E0FFF751FD012010BD127888
:1009B00000F124010A7000224A700122EDE711685B
:1009C0004FF0FF32E9E70000074B70B50D467B445E
:1009D000FFF7CBFF0446284600F098FB10B14FF01C
:1009E000FF3070BD204670BDEF7300002DE9FF5F42
:1009F00015468A460446DFF8AC80F8440027D8E95B
:100A000000103E46CDE9001010E03AF816106A4694
:100A100002A800F07FFB411C07D02178890603D58E
:100A2000E269391891420DD80744761C2078800677
:100A300002D5E069B84205DDAE42E6DB3AF81600C1
:100A40000028E2D1A069C01BA0612046FFF7E2FEAA
:100A5000D8E90010CDE90010002017E03AF818108E
:100A60006A4602A800F056FBB0F1FF3F81460BD06A
:100A700000250DF1080B05E0D4E901211BF8050064
:100A800090476D1C4D45F7D308F10100B0428046F8
:100A9000E4DB206A384420622046FFF7D1FEBDE83F
:100AA000FF9F0000F6B200002DE9F0418046D21D04
:100AB00022F007020025D2E90002F52915A614D07C
:100AC000011E72F1000106DA0023D0EB030063EB94
:100AD000020211A608E0D8F800108B0701D50FA676
:100AE00002E0490701D50EA601251146002408F1B0
:100AF000240704E000F0A2F830323A55641C50EAB2
:100B00000102F7D12B46324621464046BDE8F0416E
:100B1000FFF7B9BE000000002D0000002B00000010
:100B20002000000030B4002100F1240408E002F0AD
:100B30000705D208303542EA4372DB086554491C88
:100B400052EA0305F3D10468002310A2250708D553
:100B500004F020040C4304D0C46901230CA2641ED9
:100B6000C46130BCFFF78FBE10B504462146106843
:100B7000FFF780FE02462046BDE810400023D1E783
:100B8000D21D22F00701D1E90023CBE700000000CD
:100B90003000000010B5203AC0F00B80B1E81850CA
:100BA000203AA0E81850B1E81850A0E81850BFF457
:100BB000F5AF5FEA027C24BFB1E81850A0E81850F6
:100BC00044BF18C918C0BDE810405FEA827C24BF4A
:100BD00051F8043B40F8043B08BF7047D20728BFD8
:100BE00031F8023B48BF11F8012B28BF20F8023B27
:100BF00048BF00F8012B70474FF000020429C0F0F5
:100C0000128010F0030C00F0A782CCF1040CBCF1B0
:100C1000020F18BF00F8012BA8BF20F8022BA1EB90
:100C20000C0100F099BA5FEAC17C24BF00F8012BE7
:100C300000F8012B48BF00F8012B704730B5B0F128
:100C40000A024FEA900E71F100034EEA817EB0EB8A
:100C50000E0061EB91014FEA101E4EEA017E10EB8F
:100C60000E0041EB11114FEA102E4EEA016E10EB0F
:100C70000E0041EB11214FEA104E4EEA014E10EBEF
:100C80000E0041EB1141401841F100014FEAD00044
:100C900040EA41704FEAD10110EB80054FEA810430
:100CA00044EA907444EB01046D1944EB0404521BB4
:100CB000A3414FF0000348BF0A3200D530BD401CAD
:100CC00041F1000130BD70472DE9FF4F0C461E4633
:100CD0004FF0FF378BB0D2E90001DDF860800A9059
:100CE0008A46C1F30A5505B93D46002108464FF032
:100CF0000000BAF1000F00F4400005DA00EB8000BC
:100D00004FF4400101EA50004FEA9059B9F1010F48
:100D100000DDB9460A9850EA4A000ED044F6105059
:100D2000A5F2FF3545432F14B8F1000F1ED07542D0
:100D3000291E1EDDC9F100021CE0B8F1010F4FF0C1
:100D4000000001D0302103E0F24305E02154401CB3
:100D5000B042FBDB30460022002121540B99C1F840
:100D60000880C1E900200FB0BDE8F08FBD1B6D1CED
:100D7000DEE74A4600DA694206A800F083FA06ABCD
:100D800093E8070003AB83E8070050460A9900F098
:100D900031FB8DE80700A0F500501F380090039844
:100DA000002D09DD42F21F014A46084403A90390C1
:100DB000684600F090FD08E0A0F500504A461F3854
:100DC00003A90390684600F09AFD8DE8070000042F
:100DD000000C03D04FF0FF30410800E01046B8F19E
:100DE000000F03D00022009215461EE0751E05D4A8
:100DF000FFF724FF303262556D1EF9D5B34601224C
:100E0000084302D000227F1C04E02078302801D162
:100E100000227F1E002A099786D01DE0112D07DAD7
:100E2000FFF70CFF303262556D1C50EA0102F5D11C
:100E3000084302D00098C8B10EE00021681E05E00A
:100E4000235C625C63542254401E491C8142F7DBE0
:100E5000AB46A81B401E0990002004F80B000B981D
:100E6000099AC0F80880C0E9002B7CE711264FF0F2
:100E7000000859E72DE9F04F88460446D21D22F0BC
:100E8000070191B0D1E90001CDE90A0106F026FF82
:100E900002460B98C00F01D02D2007E02068810783
:100EA00001D52B2002E0202101EAC000032A09908D
:100EB00001D0072A05DB03464146204600F0A2F98F
:100EC0000BE12078800601D5E06900E00620B8F14A
:100ED000650F814606D0B8F1660F18D0B8F1670FDC
:100EE00070D131E00020B9F1110F009001DB112326
:100EF00001E009F101030AAA01A90CA8FFF7E4FE29
:100F0000DDE90C70002609F10105834647E0012068
:100F10004B4600904FF000470AAA01A90CA8FFF722
:100F2000D3FEDDE90DB00C995D46002610B909F13C
:100F300001000D18B9EB050003D4C0F1FF3609F12B
:100F40000105A5EB09002BE0B9F1010F01DA4FF023
:100F500001090020B9F1110F0090484601DD11236D
:100F600000E003460AAA01A90CA8FFF7ADFEDDE9DF
:100F70000C704D4600268346207800070AD4AB4506
:100F800000DA5D4601A8012D04DD411911F8011CAC
:100F9000302907D04F4502DA17F1040F04DA012097
:100FA00082460FE06D1EEEE7002F02DCED1B3E4493
:100FB00003E0781CA84200DD7D1CB81B00F1010A8B
:100FC0004FF000472078000703D4AA4501DB4FF01B
:100FD000FF3A0021B7F1004F0DF143088DF843109F
:100FE00024D002202B23002F01DA7F422D230A2157
:100FF000021EA0F1010000DC5FB197FBF1FC97FB42
:10100000F1F201FB1C7C17460CF1300C08F801CD05
:10101000EEE7A8F1010003702188090501D54521FB
:1010200000E06521A0F1010800F8011C09980FA952
:10103000A1EB0807FF1D00B10120411901EBEA7087
:10104000A1693844081A401EA0612078C00602D465
:101050002046FFF7DFFB099828B1D4E9012190472A
:10106000206A401C20622078C00622D52046FFF767
:10107000D1FB1EE0002E04DBB34502DD01A8805D3C
:1010800000E03020D4E901219047206A401C206212
:10109000761CAAF101005FEA000A0AD100F0AEF85E
:1010A000C0680168405CD4E901219047206A401C77
:1010B0002062281EA5F10105DCDC07E0D4E901214E
:1010C00018F8010B9047206A401C2062381EA7F1D7
:1010D0000107F3DC2046FFF7B3FB032011B043E622
:1010E00010B5436913B1AFF3008001E0FFF77EFC58
:1010F000012010BD128800F1240182840022C284E4
:101100000122EDE711684FF0FF32E9E7007B00F0C4
:101110008000704770B516460C46054600F066F82C
:10112000036893F80101012806D0FF2C0FD8185D41
:1011300068B101202C7070BDD3F8070132462146FA
:1011400003F2071303442846BDE8704018474FF0E8
:10115000FF3070BD4FF0000200B51346944696462E
:10116000203922BFA0E80C50A0E80C50B1F12001BA
:10117000BFF4F7AF090728BFA0E80C5048BF0CC068
:101180005DF804EB890028BF40F8042B08BF7047C6
:1011900048BF20F8022B11F0804F18BF00F8012B38
:1011A0007047754600F0E2F8AE46050069465346C2
:1011B00020F00700854618B020B5FFF715F9BDE807
:1011C00020404FF000064FF000074FF000084FF0AE
:1011D000000B21F00701AC46ACE8C009ACE8C0093F
:1011E000ACE8C009ACE8C0098D46704710B500F006
:1011F00005F8001D10BD00BF4D900000004870476D
:10120000206700202DE9F0411F46044603260168AF
:10121000072A01F4006004DB08B116A505E016A555
:1012200003E008B115A500E015A521F0100020602D
:10123000A069C01EA0610FB1401EA0612046FFF74B
:10124000E9FA4FB1D4E9012138469047206A401CA1
:101250002062C01C206206E0206AFAE7D4E901217E
:1012600015F8010B9047761EF8D22046FFF7E8FAF2
:10127000BDE8F0814E414E006E616E00494E460061
:10128000696E66002DE9F047814616468AB03348FC
:1012900078440DC88DE80D0030487844801C03ACBC
:1012A0000DC884E80D0041F69B300844372190FBBF
:1012B000F1F290FBF1F5A5F1800501FB12041B3C56
:1012C00002D56442012000E00020DFF890A08046B3
:1012D0000027FA44AAF1BE0A0DE0E00709D0324621
:1012E000684607EB47010AEB810100F008FB8DE837
:1012F000070064107F1C002CEFD1184F7F44AC3FD7
:1013000018E0E80714D007EB04100DF1180A90E874
:101310000E008AE80E00C068F04201D198190890CA
:10132000324606A903A800F0EAFA03AB83E80700F7
:101330006D10641C002DE4D132466946B8F1000FEF
:1013400003A802D000F0C7FA01E000F0D8FAC9E91A
:101350000001C9F808200AB0BDE8F087E4AA00003F
:101360000446AFF300802046FEF7CDFF00487047EB
:10137000006700204FF0013C50F8042B51F8043B6B
:101380009A4221D1A2EB0C03934313EACC1317D159
:1013900050F8042B51F8043B9A4215D1A2EB0C03F0
:1013A000934313EACC130BD150F8042B51F8043BB0
:1013B0009A4209D1A2EB0C03934313EACC13DBD07E
:1013C0004FF00000704700BFD01A01BAB1FA81F1A6
:1013D00001F0180122FA01F0CB40C1F12001DBB28B
:1013E000C0B2C01A2CFA01F3D11A914311EAC31109
:1013F000E6D170475FEA400C08BF91F0000F4FEA5A
:101400008C234FEAC12243EA51514FEA1C5018BFC6
:1014100000F5F0404FEA300018BF41F000415FEAAC
:101420006C5C00F02980BCF1FF3F08BF40F08040B9
:101430007047130C06BF12044FF0100C4FF0000C55
:10144000130E04BF12020CF1080C130F04BF12019B
:101450000CF1040C930F04BF92000CF1020CD30F9B
:1014600004BF52000CF1010C11464FF00002A0F134
:101470001F00A0EB0C00704711F0004F08BF704731
:1014800031F000413FF4D5AF0B0C06BF09044FF01B
:10149000100C4FF0000C0B0E04BF09020CF1080CED
:1014A0000B0F04BF09010CF1040C8B0F04BF890062
:1014B0000CF1020CCB0F04BF49000CF1010CCCF174
:1014C0002003A0EB0C0022FA03F302FA0CF241EA2B
:1014D000030100F10100704720F07F4C80EA030017
:1014E00023F07F47ACEB070303F57C5300F000408B
:1014F00003F1FF032DE980494FEA154B09B44FEA88
:10150000144325EA0B4E24EA03480FF2042606EBA7
:10151000132749083E785FEA320203FB0667C7F5E6
:10152000000707FB06F64FEA54374FEAD64606F1A6
:10153000020607FB066CCCF1005C4FEA1C472CEA64
:10154000074C07FB06F40CFB06F504EB15464FEAC7
:10155000961634BF00204FF000404FEAD13706FB0B
:1015600007FC4FEA1C4C0CFB0BF7D21B03FB0CF7E0
:1015700061EB07010CFB0EF7B0EB074072EB174273
:101580000CFB08F734BFA2EB0742B2EB074261EB5A
:1015900017414FEA0C444FEA910706FB07FC4FEA5C
:1015A0001C4C0CFB0BF7B0EBC74072EB573203FB44
:1015B0000CF734BFA2EBC742B2EBC74261EB573125
:1015C0000CFB0EF7B0EBC70072EB57720CFB08F781
:1015D00034BFA2EBC702B2EBC70261EB5771039FA6
:1015E0004FEA816141EA921104EBCC044FEAD13712
:1015F0004FEA826206FB07FC42EA90124FEA8060E3
:101600004FEA1C4C0CFB0BF7D21B03FB0CF761EBF6
:1016100007010CFB0EF7B0EB074072EB17420CFB17
:1016200008F734BFA2EB0742B2EB074261EB174168
:101630004FEA8C554FEA910704EB9C2406FB07FC0C
:101640004FEA1C4C0CFB0BF7B0EBC74072EB573268
:1016500003FB0CF734BFA2EBC742B2EBC74261EB0E
:1016600057310CFB0EF7B0EBC70072EB57720CFB57
:1016700008F734BFA2EBC702B2EBC70261EB5771A8
:1016800015EB4C254FEA816141EA92114FEA8262E3
:101690004FEAD13742EA901206FB07FC44F10004FE
:1016A0004FEA80604FEA1C4C0CFB0BF7D21B03FB8C
:1016B0000CF761EB07010CFB0EF7B0EB074072EB88
:1016C00017420CFB08F734BFA2EB0742B2EB07420C
:1016D00061EB174115EB1C154FEA813141EA92414C
:1016E0004FEA823242EA90424FEA80304FEA0C766B
:1016F00044F1000448EA03434EEA0B484FF0000E61
:10170000B2EB080C71EB030724BF624639464EEB7F
:101710000E0E4FF0000B0018524149414BEB0B0BE2
:10172000B2EB080C71EB03077BF1000B24BF6246A0
:1017300039464EEB0E0E4FF0000B00185241494156
:101740004BEB0B0BB2EB080C71EB03077BF1000BBF
:1017500024BF624639464EEB0E0E51EA020718BF0F
:1017600046F0010616EB0E7655F1000254F1000129
:1017700003D5BDE88901BDE80088BDE88901BDE861
:101780000048B619524141EB0101A3F10103704732
:1017900080807F7E7D7C7B7A7978777676757473AE
:1017A000727171706F6E6E6D6C6C6B6A6A6968686D
:1017B000676666656464636362616160605F5F5E03
:1017C0005E5D5D5C5C5B5B5A5A5959585857575679
:1017D00056555555545453535252525151505050DE
:1017E0004F4F4F4E4E4D4D4D4C4C4C4B4B4B4A4A30
:1017F0004A49494948484847474747464646454574
:1018000045444444444343434342424242414141AC
:10181000002B26D4770021D01CB54FEA370703B43C
:101820004FF010004FF010014FF000000FBCBDE86A
:1018300010400BF1010BBBF1010F08BF5FEA170766
:1018400022BF12F1010211F101014FF0004143F1F9
:10185000000300F0004043EA00007047F9D3570846
:10186000DAE746EA064613F1400F4FEA16461FDD57
:1018700013F1200FDFBF16430A46002120335B42DD
:10188000C8D0C3F1200746EA064602FA07F74FEA36
:10189000164646EA0706C3F1200722FA03F201FAC8
:1018A00007F721FA03F14FF0000342EA0702B1E71C
:1018B00046EA020646EA06464FEA164646EA0106A8
:1018C000BCBF46EA0646360C4FF000034FF000025C
:1018D0004FF000019EE72DE9C048934630B491E8EF
:1018E000380007C831EA400C48BF34EA430C03D53E
:1018F000FFF7F2FDFFF78CFFF0BCBDE800882DE993
:10190000C048934630B491E8380007C810F0804FC3
:1019100008BF13F0804F03D100F005F8FFF778FF00
:10192000F0BCBDE8008820F07F4780EA030023F088
:101930007F4C07EB0C03A3F57C5300F00040A3F1B0
:10194000FE0392F0000F00F0B38095F0000F00F05E
:1019500077802DE901494FEA11404FEA144621EA08
:10196000004800FB06FC24EA064708FB06F607FBD6
:1019700008F800FB07F718EB06484CEB164C4FEA4B
:10198000124B18EB07484FEA15464CEB174022EA7A
:101990000B4E0BFB06FC25EA06470EFB06F607FB83
:1019A0000EFE0BFB07F71EEB064E4CEB164C4FF0F2
:1019B00000061EEB074E4CEB174B18EB0B0840F1E3
:1019C000000018EB0E0B58EB000840F100008F1AD6
:1019D0004FF000013CBFC943661B14BFB5EB040CBC
:1019E00000213CBFC943F61B4FEA17444EEA8E0E56
:1019F00027EA04454FEA1C4704FB07622CEA074C20
:101A000005FB07F70CFB05F604FB0CFC16EB074681
:101A100042EB174216EB0C4642EB1C421BEB060650
:101A200058EB0202414146EA9E0601D5BDE8018914
:101A3000B619524141EB0101A3F10103BDE801894F
:101A40004FEA14454FEA114724EA054621EA074CBC
:101A500005FB07F406FB07F70CFB06F105FB0CFC86
:101A600011EB074144EB17444FEA124711EB0C41CD
:101A700044EB1C4422EA074C05FB07F206FB07F780
:101A80000CFB06F605FB0CFC16EB074642EB174277
:101A900016EB0C4642EB1C456A1854F1000148BF96
:101AA0007047B619524141EB0101A3F101037047A0
:101AB00095F0000F37D04FEA11424FEA144721EA60
:101AC000024624EA074C02FB07F106FB07F70CFB72
:101AD00006F402FB0CFC14EB074441EB17414FEA00
:101AE000154714EB0C4441EB1C4125EA074C02FB63
:101AF00007F506FB07F70CFB06F602FB0CFC16EBE2
:101B0000074645EB174516EB0C4645EB1C421219F0
:101B100051F1000148BF7047B619524141EB010134
:101B2000A3F1010370474FEA14454FEA114724EA35
:101B3000054621EA074C05FB07F106FB07F70CFBFE
:101B400006F24FF0000605FB0CFC12EB074241EBDE
:101B5000174112EB0C4251EB1C4148BF70479218E1
:101B600041EB0101A3F101037047FEE703480022A6
:101B7000026042605321312004F0DABC28000020CA
:101B800010B50B460C0601F07F0202EB820100EB60
:101B9000C10102D501F58E7101E001F55D710A7098
:101BA000DA094A7005F0E0FD002010BD0A4610B5C4
:101BB000090602F07F0306D503EB830100EBC101A8
:101BC00001F58E7105E002EB820100EBC10101F528
:101BD0005D7100248C700B70D2094A7005F0ABFD6A
:101BE000002010BD70B50D460E0601F07F0404EB19
:101BF000840100EBC10102D501F58E7101E001F510
:101C00005D71ED090C704D708A60CB7000D0CC8096
:101C1000022B01D100220A7105F064FD002070BD85
:101C200010B501F07F0404EB840100EBC101C1F8A1
:101C30008833C1F880230023C1F88C3381F87533D1
:101C400081F87443C37801F55D71012B00D10A61FD
:101C500014F0FF0F03D005F0B9FD002010BD05F012
:101C6000D2FCFAE70069002261F30A12016811430D
:101C7000016070470A4610B5090602F07F0306D5D9
:101C800003EB830100EBC10101F58E7105E002EB6E
:101C9000820100EBC10101F55D7101248C700B70B4
:101CA000D2094A7005F07AFD002010BD70B511F020
:101CB0007F0404EB840100EBC1014FF0010581F8C2
:101CC0001D5181F81C41C1F82821C1F82C2101F5D2
:101CD0008E714FF00002C1E9053203D005F076FDA8
:101CE000002070BD05F08FFCFAE700002DE9F041FF
:101CF0000646002405F093FE074655E0F80751D04C
:101D00003069E1B20369426BCA4006EB810102F01F
:101D10000102896943EAC2128D681540E9071AD0A9
:101D20000125426B05FA04F18A43426306EB840005
:101D3000806985601F48E1B200684268304690477C
:101D4000F078012807D134B996F81101042802D19E
:101D5000304605F0B5FC280704D506EB84000825BD
:101D600080698560E80604D506EB8400102580694B
:101D70008560680604D506EB84004025806985608F
:101D8000A80704D506EB8400022580698560280633
:101D900008D52146304600F066F906EB8401802024
:101DA000896988607F08641C002FA7D10120BDE8E5
:101DB000F0810000680100202DE9F0410546002473
:101DC00005F033FE0746DFF8988043E0F8073FD080
:101DD000E1B2284605F02FFE0646C00725D005EBE8
:101DE00084000126416D8E60E97801290CD1406D97
:101DF000016904EB840005EBC000C1F31201D0F8C7
:101E00007C23511AC0F88C13D8F80000E1B20268A4
:101E100028469047E878012807D134B995F8110190
:101E2000052802D1284605F04BFCB00704D505EB88
:101E300084000226406D8660300709D5D8F800007E
:101E400081682846884705EB84010820496D886031
:101E50007F08641C002FB9D10120BDE8F08100008B
:101E60006801002070B50546C068816921F0100145
:101E70008161E868066A06F00F0000EB800005EB60
:101E8000C004C6F3434004F55D74072821D2DFE89F
:101E900000F0202004202020150047F6F0700642B4
:101EA00017D0C6F30A1632462846E16805F0CBFD86
:101EB000E0683044E060A069304409E0082205F29F
:101EC000CC51284605F0BFFDA069C6F30A110844AD
:101ED000A061E868816941F010018161012070BD55
:101EE00038B5044600208DF8000094F812018DF8F2
:101EF00000001548006841692046884720698068CD
:101F0000E2684FF400615161A17AD1B1C00718D0E5
:101F100094F81501012814D19DF80000032810D170
:101F2000D4F80C01016841F001010160D4F80C0102
:101F3000016841F0030101600448016841F00601B5
:101F40000160012038BD00006801002010ED00E0B4
:101F500070B50446006900250126416821F00101A1
:101F600041602946204605F011FD0020FF2206E0D1
:101F700004EB80018B699A60496D8A60401C61782E
:101F80008142F5D821694FF0FF30886128462169E8
:101F900066F30F0066F31F40C861216945F00B002E
:101FA0004861216945F00B0008612069016821F44E
:101FB000FE610160204605F083FBE1684FF480502C
:101FC000486103480068016920468847012070BDC8
:101FD0006801002070B5044605F046FD012000238D
:101FE00084F8120184F814311A46402510E002EBFF
:101FF000820104EBC10181F81D0181F81C21A1F8C7
:10200000222181F81F31C1E94953521CC1F83031F6
:1020100061789142EBD8002010E000EB800104EBE6
:10202000C10181F8753381F87403A1F87A0381F84E
:102030007733C1E9DF53401CC1F8883361788142AE
:10204000EBD8204605F0BAFA204605F0B5F9002194
:10205000204605F069FD204605F0EEF92046BDE872
:10206000704005F06DBC2DE9F0470E4601EB86018E
:1020700000EBC1048146D4E94C01401AD4F8241184
:1020800004F58E74814200D20846C01C870809EB13
:10209000860812E0451AA068A84200D20546E81C4E
:1020A0008708ABB2F2B24846E16805F052FDE0683D
:1020B0002844E060A0692844A061D8F8180080692D
:1020C00080B2B84205D9D4E90501814201D2002885
:1020D000E0D10120BDE8F087704700008000A0F14A
:1020E000C0400029016802D041F0010101E0024A2C
:1020F0001140016070470000FEFF0F0010B5D0E9ED
:1021000001121143D0E903231A43114342691143D9
:1021100082691143C2691143026A1143426A114341
:10212000826A1143C26A1143026B11430268920032
:10213000A2F1C04211608168082907D101688900B5
:10214000A1F1C0410A6842F040020A60416BD1E946
:10215000002342EA03128B688C891B0243EA044382
:102160001A430B8A42EA03520B7D896942EA0362F1
:102170000A4301688900A1F1C0414A60C16AB1F512
:10218000804F08D000686FF070418000A0F1C0401F
:10219000C0F8041110BD816BD1E9002342EA03129B
:1021A0008B680C8A1B0243EA04531A430B7D89692E
:1021B00042EA036200680A438000A0F1C040C0F810
:1021C000042110BDF0B5002201274FF0030C0B686D
:1021D00007FA02F52B40AB422CD1066853000CFAEB
:1021E00003F4A64306600E79D0F800E09E4046EA6C
:1021F0000E0606600E79012E01D0022E12D18668DD
:10220000A64386604E79D0F808E09E4046EA0E0666
:1022100086604668AE43466045688E799640B6B2A1
:1022200035434560C568A543C560CC799C40C3680B
:102230001C43C460521C102AC9D3F0BD4B07DB0EEF
:102240009A40C90810B500EB8100016A0F249C4038
:10225000A1430162016A1143016210BD018370470D
:10226000F0B4164D297801290AD0E9680026B1F5A5
:10227000006F00D1EE60D5E90221914202D12E70AB
:10228000F0BC704702D9C1F5006201E0A2EB010287
:102290002A61402A8CB205D940234031403AC5E931
:1022A000031203E01144C5E9031693B2012129701A
:1022B00003490A19F0BC8121FFF7F8BC8001002016
:1022C000FF5E0020FEE700002DE9F043184F0646B0
:1022D000002438887D884543B888A0F5D04104396A
:1022E00002D1B879012808D00021084603F00AFE7F
:1022F00003F058FF4FF0D84016E00020B8714FF0BF
:102300002A09A7F80A904FF02B08A7F80C8001467D
:1023100003F0F8FD0120B871A7F80A80A7F80C9027
:10232000E6E7A0F88060641CAC42FAD3BDE8F08315
:102330000C0800202DE9F04F4A492A232B248988D4
:1023400045F2105A4FF4305B4FF4285E4FF4487555
:102350004FF0F00C49F241394FF4A07745F21036B6
:102360004FF4F07280B13F484FF00108494580F8C2
:1023700006800780A0F802C001D0B1423ED12C25D2
:1023800005814381848157E036484FF00008494574
:1023900080F80680A0F800C0478006D0A1F5D04C98
:1023A000BCF1040C01D0B1420CD12C250581438134
:1023B000A1F5D0438481043B01D0B14244D10780D0
:1023C000428041E0514507D1A0F808B0A0F80AE0EA
:1023D0004FF42C5181810EE0A1F5C856633E06D022
:1023E0002221018120214181212181812CE02C2188
:1023F0000181448183810280458025E0A1F5D04C94
:10240000BCF1040C09D051450BD1A0F808B0A0F8DC
:102410000AE04FF42C53838121E02C25058144816F
:1024200009E0A1F5C85CBCF1630C12D02223038142
:102430002123438120238381A1F5D043043B01D094
:10244000B14201D102804780BDE8F04F002003F087
:1024500057BC4FF02C0CA0F808C043818481058044
:102460004280E9E70C0800202DE9F043414D9146F8
:102470000C460246060AA9882846A1F5134340895E
:102480004FEA1428413B16D0A1F5A643103B12D0C9
:10249000B3F5007313D02E46A1F5C857B37936882B
:1024A000B61A761E633F23D0A1F5D047043F3AD039
:1024B000012B4DD04DE003F069FE304639E003F0CA
:1024C00065FE304603F056FE6889401C80B203F07A
:1024D0005DFED0B203F04EFEA88903F057FE4046E1
:1024E00003F048FEA889401C80B203F04FFE2BE0A9
:1024F00003B9B2B203F04AFE160A304603F03AFEC0
:10250000D0B203F037FE304603F034FED0B203F011
:1025100031FEA88903F03AFE404603F02BFEE0B2FC
:1025200003F028FE0DE0012B00D1B2B203F02EFE25
:10253000100A03F01FFED0B203F01CFEA88903F0BE
:1025400025FE404603F016FEE0B203F013FE07E05E
:10255000B2B2114603F030FEA889214603F02CFEEA
:102560004FF0D840298920F87E1FA0F80290BDE8DE
:10257000F08300000C0800202DE9F04FA1B00024EA
:1025800001217A201F9403F097FE0121084603F0F1
:10259000ABFE4FF40040009001208DF804008DF850
:1025A000064002208DF8050001208DF807006946DD
:1025B000FE48FFF707FE4CF23370009002208DF8C2
:1025C00004008DF8064003208DF8050001208DF8E9
:1025D00007006946F648FFF7F5FD4FF6807000905A
:1025E00002208DF804008DF8064003208DF80500C8
:1025F0000120F04D8DF8070069462846FFF7E2FDFF
:10260000A814009002208DF804008DF806400320E5
:102610008DF805000120E84E8DF807006946304628
:10262000FFF7D0FDA814009002208DF804008DF86B
:10263000064003208DF805000120E04F8DF80700CB
:1026400069463846FFF7BEFD0C220021D848FFF747
:10265000F5FD0C220121D648FFF7F0FD0C220421E4
:10266000D348FFF7EBFD0C220521D148FFF7E6FD2B
:102670000C220821CE48FFF7E1FD0C220921CC48AD
:10268000FFF7DCFD0C220A21C948FFF7D7FD0C2219
:102690000E21C748FFF7D2FD0C220F21C448FFF7D7
:1026A000CDFD0C2207212846FFF7C8FD0C2208218A
:1026B0002846FFF7C3FD0C2209212846FFF7BEFD7F
:1026C0000C220A212846FFF7B9FD0C220B212846CF
:1026D000FFF7B4FD0C2211462846FFF7AFFD0C2290
:1026E0000D212846FFF7AAFD0C220E212846FFF7F0
:1026F000A5FD0C220F212846FFF7A0FD0C22114654
:102700003046FFF79BFD0C2211463846FFF796FD39
:102710000F20CDE911043C20CDE9130415940920C4
:102720001694CDE917400820CDE919401B941C945C
:102730000620CDE902041D941E941020CDE904402A
:1027400006940002CDE90A40089407948000CDE980
:102750000C40099411A8CDE90E4018A8109002A8C9
:10276000FFF7CCFC01210620FFF7B8FC322005F072
:10277000F1FA0121002003F01FFD322005F0EAFAF2
:10278000002003F08AFA8E4A4FF0204A4FF6FF7B72
:10279000908049F2413545F2103645F2105441F629
:1027A000631846F60407FF2804D3584502D0B0F555
:1027B000134F74D1D32003F0E9FC03F064FA908046
:1027C00003F061FA908003F05EFA0BEA0020D9462C
:1027D000908003F058FA918808439080A8425ED018
:1027E000BF2003F0D3FC03F04EFA908003F04BFAC5
:1027F000908003F048FA908003F045FA09EA00203F
:10280000908003F040FA918808439080B84246D007
:10281000D42003F0BBFC03F036FA908003F033FAC7
:10282000908003F030FA09EA0020908003F02BFA40
:10283000918808439080B04231D04FF45A4003F061
:10284000A5FC03F020FA90804FF45B4003F09EFC5F
:1028500003F019FA09EA002090804FF45C4003F07D
:1028600095FC03F010FA918808439080B0F5004F72
:1028700039D0A04213D0A12003F088FC03F003FA62
:10288000908003F000FA09EA0020908003F0FBF941
:1028900091880843A0F5AE419080613920D080B284
:1028A000A84205D0B04203D0A04201D040451CD17F
:1028B000DAF81C11504621F00F01CAF81C11DAF8A1
:1028C0001C1121F47061CAF81C11DAF81C1141F0D6
:1028D0000301CAF81C11DAF81C1141F4007121E05F
:1028E000A2F80480E4E79480E2E7B84203D0A0F5C0
:1028F0004541053918D1DAF81C11504621F00F0175
:10290000CAF81C11DAF81C1121F47061CAF81C1104
:10291000DAF81C1141F00A01CAF81C11DAF81C118E
:1029200041F44061C0F81C119146918825A0FDF743
:1029300081FDB9F80400A8427DD1CF2003F026FC28
:10294000002003F017FCC12003F014FC302003F03A
:1029500011FCED2003F01AFC642003F00BFC0320B3
:1029600003F008FC122003F005FC812003F002FCB8
:10297000E82003F00BFC852003F0FCFB102003F0A3
:10298000F9FB7A2003F0F6FBCB2003F0FFFB3920A4
:1029900003F0F0FB2C2003F0EDFB002003F0EAFB3A
:1029A000342003F0E7FB022014E0000000040240A2
:1029B000000C0240001002400014024000180240C7
:1029C0000C080020204C43442049443A25780D0A45
:1029D0000000000003F0CEFBF72003F0D7FB20201F
:1029E00003F0C8FBEA2003F0D1FB002003F0C2FB98
:1029F000002003F0BFFBC02003F0C8FB1B2003F046
:102A0000B9FBC12003F0C2FB012003F0B3FBC520DA
:102A100003F0BCFB302003F0ADFB302003F0AAFB39
:102A2000C72003F0B3FBB72003F0A4FB362003F06C
:102A3000ADFB482000E0A7E003F09CFB3A2003F048
:102A4000A5FB552003F096FBB12003F09FFB00206F
:102A500003F090FB1A2003F08DFBB62003F096FBE9
:102A60000A2003F087FBA22003F084FBF22003F08E
:102A70008DFB002003F07EFB262003F087FB012066
:102A800003F078FBE02003F081FB0F2003F072FBE2
:102A90002A2003F06FFB282003F06CFB082003F0D2
:102AA00069FB0E2003F066FB082003F063FB542053
:102AB00003F060FBA92003F05DFB432003F05AFB09
:102AC0000A2003F057FB0F2003F054FB002003F013
:102AD00051FB002003F04EFB002003F04BFB0020D5
:102AE00003F048FBE12003F051FB002003F042FB20
:102AF000152003F03FFB172003F03CFB072003F0F9
:102B000039FB112003F036FB062003F033FB2B20AA
:102B100003F030FB562003F02DFB3C2003F02AFB92
:102B2000052003F027FB102003F024FB0F2003F007
:102B300021FB3F2003F01EFB3F2003F01BFB0F2077
:102B400003F018FB2B2003F021FB002003F012FB05
:102B5000002003F00FFB012003F00CFB3F2003F0EB
:102B600009FB2A2003F012FB002003F003FB0020E6
:102B700003F000FB002003F0FDFAEF2003F0FAFA67
:102B8000112003F003FBA5E0B8427CD1112003F033
:102B9000FDFA142005F0DEF8D02003F0F7FA072044
:102BA00003F0E8FA422003F0E5FA1D2003F0E2FA10
:102BB000D12003F0EBFA002003F0DCFA1A2003F036
:102BC000D9FA092003F0D6FAD22003F0DFFA012067
:102BD00003F0D0FA222003F0CDFAC02003F0D6FA99
:102BE000102003F0C7FA3B2003F0C4FA002003F0E2
:102BF000C1FA022003F0BEFA112003F0BBFAC5208F
:102C000003F0C4FA032003F0B5FAC82003F0BEFABB
:102C1000002003F0AFFA252003F0ACFA212003F0E6
:102C2000A9FA052003F0A6FA002003F0A3FA0A206F
:102C300003F0A0FA652003F09DFA252003F09AFA2C
:102C4000772003F097FA502003F094FA0F2003F056
:102C500091FA002003F08EFAF82003F097FA012091
:102C600003F088FAFE2003F091FA002003F082FAC4
:102C7000022003F07FFA202003F088FA362003F0C8
:102C800085FA082000E02BE003F074FA3A2003F004
:102C90007DFA552003F06EFA2B2003F077FA00201E
:102CA00003F068FA002003F065FA012003F062FAED
:102CB0003F2003F05FFA2A2003F068FA002003F0B7
:102CC00059FA002003F056FA012003F053FADF20EE
:102CD00003F050FA782005F03DF8292001F0FBBE02
:102CE000B0427CD1ED2003F051FA012003F042FA0A
:102CF000FE2003F03FFAEE2003F048FADE2003F056
:102D000039FA212003F036FAF12003F03FFA0120CE
:102D100003F030FADF2003F039FA102003F02AFA2A
:102D2000C42003F033FA8F2003F024FAC62003F006
:102D30002DFA002003F01EFAE22003F01BFAE22035
:102D400003F018FAE22003F015FABF2003F01EFA90
:102D5000AA2003F00FFAB02003F018FA0D2003F0B8
:102D600009FA002003F006FA0D2003F003FA002010
:102D700003F000FA112003F0FDF9002003F0FAF946
:102D8000192003F0F7F9002003F0F4F9212003F0F3
:102D9000F1F9002003F0EEF92D2003F0EBF900200B
:102DA00003F0E8F93D2003F0E5F9002003F0E2F933
:102DB0005D2003F0DFF9002003F0DCF95D2003F073
:102DC000D9F9002003F0D6F9B12003F0DFF9802013
:102DD00003F0D0F9002003F0CDF98B2000E0FCE3F4
:102DE00003F0C8F9002003F0C5F9962003F0C2F9FA
:102DF000002003F0BFF9B22003F0C8F9002003F06F
:102E0000B9F9002003F0B6F9022003F0B3F900206D
:102E100003F0B0F9032003F0ADF9002003F0AAF9A4
:102E2000B32003F0B3F9002003F0A4F9002003F06D
:102E3000A1F9002003F09EF9002003F09BF9002087
:102E400003F098F9002003F095F9002003F092F9BF
:102E5000002003F08FF9002003F08CF9002003F02C
:102E600089F9002003F086F9002003F083F900209F
:102E700003F080F9002003F07DF9002003F07AF9D7
:102E8000002003F077F9002003F074F9002003F02C
:102E900071F9002003F06EF9002003F06BF90020B7
:102EA00003F068F9002003F065F9002003F062F9EF
:102EB000002003F05FF9B42003F068F98B2003F0E1
:102EC00059F9002003F056F9962003F053F9002039
:102ED00003F050F9A12003F04DF9002003F04AF966
:102EE000B52003F053F9022003F044F9002003F069
:102EF00041F9032003F03EF9002003F03BF90420E0
:102F000003F038F9002003F035F9B62003F03EF95C
:102F1000002003F02FF9002003F02CF9B72003F074
:102F200035F9002003F026F9002003F023F93F20B3
:102F300003F020F9002003F01DF95E2003F01AF9D8
:102F4000002003F017F9642003F014F9002003F0C7
:102F500011F98C2003F00EF9002003F00BF9AC20DE
:102F600003F008F9002003F005F9DC2003F002F972
:102F7000002003F0FFF8702003F0FCF8002003F0BD
:102F8000F9F8902003F0F6F8002003F0F3F8EB20B6
:102F900003F0F0F8002003F0EDF8DC2003F0EAF88D
:102FA000002003F0E7F8B82003F0F0F8002003F069
:102FB000E1F8002003F0DEF8002003F0DBF8002049
:102FC00003F0D8F8002003F0D5F8002003F0D2F881
:102FD000002003F0CFF8002003F0CCF8BA2003F073
:102FE000D5F8242003F0C6F8002003F0C3F8002031
:102FF00003F0C0F8002003F0BDF8C12003F0C6F8CC
:10300000202003F0B7F8002003F0B4F8542003F0B8
:10301000B1F8002003F0AEF8FF2003F0ABF8002079
:1030200003F0A8F8C22003F0B1F80A2003F0A2F8D8
:10303000002003F09FF8042003F09CF8002003F028
:1030400099F8C32003F0A2F83C2003F093F8002085
:1030500003F090F83A2003F08DF8002003F08AF88E
:10306000392003F087F8002003F084F8372003F0BC
:1030700081F8002003F07EF83C2003F07BF800206C
:1030800003F078F8362003F075F8002003F072F8AA
:10309000322003F06FF8002003F06CF82F2003F0CB
:1030A00069F8002003F066F82C2003F063F8002094
:1030B00003F060F8292003F05DF8002003F05AF8CF
:1030C000262003F057F8002003F054F8242003F0E2
:1030D00051F8002003F04EF8242003F04BF80020B4
:1030E00003F048F8232003F045F8002003F042F8ED
:1030F0003C2003F03FF8002003F03CF8362003F0BA
:1031000039F8002003F036F8322003F033F80020BD
:1031100003F030F82F2003F02DF8002003F02AF8F8
:103120002C2003F027F8002003F024F8292003F0D6
:1031300021F8002003F01EF8262003F01BF80020E1
:1031400003F018F8242003F015F8002003F012F81B
:10315000242003F00FF8002003F00CF8232003F0E4
:1031600009F8002003F006F8C42003F00FF86220ED
:1031700003F000F8002002F0FDFF052002F0FAFF46
:10318000002002F0F7FF842002F0F4FF002002F09C
:10319000F1FFF02002F0EEFF002002F0EBFF18201C
:1031A00002F0E8FF002002F0E5FFA42002F0E2FFB9
:1031B000002002F0DFFF182002F0DCFF002002F008
:1031C000D9FF502002F0D6FF002002F0D3FF0C20E0
:1031D00002F0D0FF002002F0CDFF172002F0CAFF5E
:1031E000002002F0C7FF952002F0C4FF002002F08B
:1031F000C1FFF32002F0BEFF002002F0BBFFE6207B
:1032000002F0B8FF002002F0B5FFC52002F0BEFFBB
:10321000322002F0AFFF002002F0ACFF442002F0A9
:10322000A9FF002002F0A6FF652002F0A3FF002006
:1032300002F0A0FF762002F09DFF002002F09AFF2E
:10324000882002F097FF002002F094FFC62002F0D1
:103250009DFF202002F08EFF002002F08BFF172040
:1032600002F088FF002002F085FF012002F082FFBB
:10327000002002F07FFFC72002F088FF002002F04C
:1032800079FF002002F076FF002002F073FF00209B
:1032900002F070FFC82002F079FF002002F06AFF00
:1032A000002002F067FF002002F064FF002002F01F
:1032B00061FFC92002F06AFF002002F05BFF0020DE
:1032C00002F058FF002002F055FF002002F052FFEC
:1032D000002002F04FFF002002F04CFF002002F01F
:1032E00049FF002002F046FF002002F043FF0020CB
:1032F00002F040FF002002F03DFF002002F03AFF04
:10330000002002F037FF002002F034FF002002F01E
:1033100031FF002002F02EFFE02002F037FF1620E0
:1033200002F028FF002002F025FF1C2002F022FFFF
:10333000002002F01FFF212002F01CFF002002F0FD
:1033400019FF362002F016FF002002F013FF46207E
:1033500002F010FF002002F00DFF522002F00AFFE1
:10336000002002F007FF642002F004FF002002F0BA
:1033700001FF7A2002F0FEFE002002F0FBFE8B200F
:1033800002F0F8FE002002F0F5FE992002F0F2FEB5
:10339000002002F0EFFEA82002F0ECFE002002F078
:1033A000E9FEB92002F0E6FE002002F0E3FEC420B0
:1033B00002F0E0FE002002F0DDFECA2002F0DAFE9C
:1033C000002002F0D7FED22002F0D4FE002002F04E
:1033D000D1FED92002F0CEFE002002F0CBFEE0208C
:1033E00002F0C8FE002002F0C5FEF32002F0C2FE8B
:1033F000002002F0BFFEE12002F0C8FE162002F01D
:10340000B9FE002002F0B6FE1C2002F0B3FE002040
:1034100002F0B0FE222002F0ADFE002002F0AAFE73
:10342000362002F0A7FE002002F0A4FE452002F0A4
:10343000A1FE002002F09EFE522002F09BFE002022
:1034400002F098FE642002F095FE002002F092FE49
:103450007A2002F08FFE002002F08CFE8B2002F01A
:1034600089FE002002F086FE992002F083FE0020F3
:1034700002F080FEA82002F07DFE002002F07AFE1D
:10348000B92002F077FE002002F074FEC42002F0A2
:1034900071FE002002F06EFECA2002F06BFE0020DA
:1034A00002F068FED22002F065FE002002F062FE0B
:1034B000D82002F05FFE002002F05CFEE02002F067
:1034C00059FE002002F056FEF32002F053FE0020C9
:1034D00002F050FEE22002F059FE052002F04AFE02
:1034E000002002F047FE0B2002F044FE002002F014
:1034F00041FE1B2002F03EFE002002F03BFE342085
:1035000002F038FE002002F035FE442002F032FEC8
:10351000002002F02FFE4F2002F02CFE002002F0CF
:1035200029FE612002F026FE002002F023FE792011
:1035300002F020FE002002F01DFE882002F01AFE9C
:10354000002002F017FE972002F014FE002002F087
:1035500011FEA62002F00EFE002002F00BFEB720A6
:1035600002F008FE002002F005FEC22002F002FE7A
:10357000002002F0FFFDC72002F0FCFD002002F059
:10358000F9FDD12002F0F6FD002002F0F3FDD62077
:1035900002F0F0FD002002F0EDFDDD2002F0EAFD7A
:1035A000002002F0E7FDF32002F0E4FD002002F02D
:1035B000E1FDE32002F0EAFD052002F0DBFD002042
:1035C00002F0D8FD0A2002F0D5FD002002F0D2FD65
:1035D0001C2002F0CFFD002000E0FDE202F0CAFD59
:1035E000332002F0C7FD002002F0C4FD442002F0A9
:1035F000C1FD002002F0BEFD502002F0BBFD002006
:1036000002F0B8FD622002F0B5FD002002F0B2FD2C
:10361000782002F0AFFD002002F0ACFD882002F01F
:10362000A9FD002002F0A6FD972002F0A3FD0020D6
:1036300002F0A0FDA62002F09DFD002002F09AFD00
:10364000B72002F097FD002002F094FDC22002F0A6
:1036500091FD002002F08EFDC72002F08BFD0020BE
:1036600002F088FDD12002F085FD002002F082FDED
:10367000D52002F07FFD002002F07CFDDD2002F06D
:1036800079FD002002F076FDF32002F073FD0020AA
:1036900002F070FDE42002F079FD012002F06AFDE5
:1036A000002002F067FD012002F064FD002002F01E
:1036B00061FD022002F05EFD002002F05BFD2A2089
:1036C00002F058FD002002F055FD3C2002F052FDB2
:1036D000002002F04FFD4B2002F04CFD002002F0D4
:1036E00049FD5D2002F046FD002002F043FD7420FC
:1036F00002F040FD002002F03DFD842002F03AFD82
:10370000002002F037FD932002F034FD002002F08B
:1037100031FDA22002F02EFD002002F02BFDB3208F
:1037200002F028FD002002F025FDBE2002F022FD5F
:10373000002002F01FFDC42002F01CFD002002F05A
:1037400019FDCD2002F016FD002002F013FDD3205C
:1037500002F010FD002002F00DFDDD2002F00AFD58
:10376000002002F007FDF32002F004FD002002F02B
:1037700001FDE52002F00AFD002002F0FBFC002024
:1037800002F0F8FC002002F0F5FC002002F0F2FC50
:10379000022002F0EFFC002002F0ECFC292002F0F5
:1037A000E9FC002002F0E6FC3C2002F0E3FC0020F3
:1037B00002F0E0FC4B2002F0DDFC002002F0DAFC1D
:1037C0005D2002F0D7FC002002F0D4FC742002F04F
:1037D000D1FC002002F0CEFC842002F0CBFC0020C3
:1037E00002F0C8FC932002F0C5FC002002F0C2FCED
:1037F000A22002F0BFFC002002F0BCFCB32002F0CB
:10380000B9FC002002F0B6FCBE2002F0B3FC0020A0
:1038100002F0B0FCC42002F0ADFC002002F0AAFCD3
:10382000CD2002F0A7FC002002F0A4FCD32002F07F
:10383000A1FC002002F09EFCDC2002F09BFC00209A
:1038400002F098FCF32002F095FC002002F092FCBC
:10385000E62002F09BFC112002F08CFC002002F01C
:1038600089FC342002F086FC002002F083FC562004
:1038700002F080FC002002F07DFC762002F07AFC51
:10388000002002F077FC772002F074FC002002F0A8
:1038900071FC662002F06EFC002002F06BFC8820B8
:1038A00002F068FC002002F065FC992002F062FC46
:1038B000002002F05FFCBB2002F05CFC002002F064
:1038C00059FC992002F056FC002002F053FC6620BF
:1038D00002F050FC002002F04DFC552002F04AFCA2
:1038E000002002F047FC552002F044FC002002F0CA
:1038F00041FC452002F03EFC002002F03BFC43204E
:1039000002F038FC002002F035FC442002F032FCCA
:10391000002002F02FFCE72002F038FC322002F0F9
:1039200029FC002002F026FC552002F023FC002098
:1039300002F020FC762002F01DFC002002F01AFCB0
:10394000662002F017FC002002F014FC672002F051
:1039500011FC002002F00EFC672002F00BFC00209E
:1039600002F008FC872002F005FC002002F002FCB7
:10397000992002F0FFFB002002F0FCFBBB2002F0CC
:10398000F9FB002002F0F6FB992002F0F3FB002087
:1039900002F0F0FB772002F0EDFB002002F0EAFBE2
:1039A000442002F0E7FB002002F0E4FB562002F086
:1039B000E1FB002002F0DEFB232002F0DBFB002015
:1039C00002F0D8FB332002F0D5FB002002F0D2FB3E
:1039D000452002F0CFFB002002F0CCFBE82002F0F3
:1039E000D5FB002002F0C6FB002002F0C3FB9920AB
:1039F00002F0C0FB002002F0BDFB872002F0BAFB02
:103A0000002002F0B7FB882002F0B4FB002002F097
:103A1000B1FB772002F0AEFB002002F0ABFB66208A
:103A200002F0A8FB002002F0A5FB882002F0A2FB18
:103A3000002002F09FFBAA2002F09CFB002002F075
:103A400099FBBB2002F096FB002002F093FB99202B
:103A500002F090FB002002F08DFB662002F08AFB52
:103A6000002002F087FB552002F084FB002002F0CA
:103A700081FB552002F07EFB002002F07BFB4420FE
:103A800002F078FB002002F075FB442002F072FB8C
:103A9000002002F06FFB552002F06CFB002002F0CA
:103AA00069FBE92002F072FBAA2002F063FB002010
:103AB00002F060FB002002F05DFB002002F05AFBE8
:103AC000002002F063FBAA2002F054FBCF2002F09A
:103AD0005DFB002002F04EFB002002F04BFB0020BB
:103AE00002F048FB002002F045FB002002F042FB00
:103AF000002002F03FFB002002F03CFB002002F01F
:103B000039FB002002F036FB002002F033FB0020DE
:103B100002F030FB002002F02DFB002002F02AFB17
:103B2000002002F027FB002002F024FB002002F01E
:103B300021FB002002F01EFBF02002F027FB0020FA
:103B400002F018FB502002F015FB002002F012FBDF
:103B5000002002F00FFB002002F00CFBF32002F02B
:103B600015FB002002F006FBF92002F00FFB0620F7
:103B700002F000FB102002F0FDFA292002F0FAFA10
:103B8000002002F0F7FA3A2002F000FB552002F084
:103B9000F1FA112002F0FAFA642004F0DBF829208F
:103BA00002F0F4FA352002F0F1FA002002F0E2FA15
:103BB000512002F0EBFAFF2002F0DCFA532002F071
:103BC000E5FA2C2002F0D6FA552002F0DFFA822026
:103BD00002F0D0FA2C20FCE3A0427DD14FF47043D8
:103BE0005521184602F0E8FA4FF20104AA212046B6
:103BF00002F0E2FA651C5221284602F0DDFAA61C0A
:103C00000821304602F0D8FAE71C0121384602F0BC
:103C1000D3FA0D214FF4304002F0CEFA0D214BF2D1
:103C2000010002F0C9FA0D214BF2020002F0C4FAC1
:103C30004FF436483421404602F0BEFA34214BF2AC
:103C4000016002F0B9FA34214BF2026002F0B4FADA
:103C50004FF431490D21484602F0AEFA4BF2011AF9
:103C60000D21504602F0A8FA0D214BF2021002F08D
:103C7000A3FA34214FF4374002F09EFA34214BF27C
:103C8000017002F099FA34214BF2027002F094FABA
:103C900000214FF4324002F08FFA00214BF2012054
:103CA00002F08AFA00214BF2022002F085FA242168
:103CB0004FF4384002F080FA24214BF6010002F064
:103CC0007BFA24214BF6020002F076FA01214FF430
:103CD0003F4002F071FA00E0FEE30F214FF4334061
:103CE00002F06AFA0F214BF2013002F065FA0F215F
:103CF0004BF2023002F060FA34214FF4394002F006
:103D00005BFA34214BF6011002F056FA34214BF6DF
:103D1000021002F051FA08214FF4354002F04CFA3B
:103D200008214BF2015002F047FA08214BF20250F1
:103D300002F042FA03214FF4424002F03DFA2421FE
:103D40004FF43A4002F038FA24214BF6012002F0F9
:103D500033FA24214BF6022002F02EFA00214FF410
:103D60003C4002F029FA78214BF6014002F024FA97
:103D700000214BF6024002F01FFA00214FF43D40B3
:103D800002F01AFA78214BF6015002F015FA0021E0
:103D90004BF6025002F010FA00214FF43E4002F0C0
:103DA0000BFA64214BF6016002F006FA00214FF491
:103DB000514002F001FA33214DF2011002F0FCF9FA
:103DC00000214DF2021002F0F7F934214DF20310F8
:103DD00002F0F2F900214DF2041002F0EDF93A215F
:103DE0004DF2051002F0E8F900214DF2061002F044
:103DF000E3F94A214DF2071002F0DEF900214DF2FD
:103E0000081002F0D9F95C214DF2091002F0D4F942
:103E100000214DF20A1002F0CFF981214DF20B1072
:103E200002F0CAF900214DF20C1002F0C5F9A621EA
:103E30004DF20D1002F0C0F900214DF20E1002F00B
:103E4000BBF9E5214DF20F1002F0B6F901214DF258
:103E5000101002F0B1F913214DF2111002F0ACF97B
:103E600001214DF2121002F0A7F954214DF2131066
:103E700002F0A2F901214DF2141002F09DF9822105
:103E80004DF2151002F098F901214DF2161002F0D2
:103E900093F9CA214DF2171002F08EF902214DF26A
:103EA000181002F089F900214DF2191002F084F97E
:103EB00002214DF21A1002F07FF901214DF21B1080
:103EC00002F07AF902214DF21C1002F075F934214A
:103ED0004DF21D1002F070F902214DF21E1002F099
:103EE0006BF967214DF21F1002F066F902214DF2C5
:103EF000201002F061F984214DF2211002F05CF9EA
:103F000002214DF2221002F057F9A4214DF22310A4
:103F100002F052F902214DF2241002F04DF9B721BE
:103F20004DF2251002F048F902214DF2261002F060
:103F300043F9CF214DF2271002F03EF902214DF254
:103F4000281002F039F9DE214DF2291002F034F97F
:103F500002214DF22A1002F02FF9F2214DF22B101E
:103F600002F02AF902214DF22C1002F025F9FE216F
:103F70004DF22D1002F020F903214DF22E1002F027
:103F80001BF910214DF22F1002F016F903214DF20A
:103F9000301002F011F933214DF2311002F00CF91A
:103FA00003214DF2321002F007F96D214DF233106A
:103FB00002F002F900214FF4524002F0FDF83321E3
:103FC0004DF2012002F0F8F800214DF2022002F03B
:103FD000F3F834214DF2032002F0EEF800214DF207
:103FE000042002F0E9F83A214DF2052002F0E4F84D
:103FF00000214DF2062002F0DFF84A214DF20720A1
:1040000002F0DAF800214DF2082002F0D5F85C2128
:104010004DF2092002F0D0F800214DF20A2002F002
:10402000CBF881214DF20B2002F0C6F800214DF2B1
:104030000C2002F0C1F8A6214DF20D2002F0BCF8D0
:1040400000214DF20E2002F0B7F8E5214DF20F20CD
:1040500002F0B2F801214DF2102002F0ADF8132168
:104060004DF2112002F0A8F801214DF2122002F0C9
:10407000A3F854214DF2132002F09EF801214DF2D5
:10408000142002F099F882214DF2152002F094F8E4
:1040900001214DF2162002F08FF8CA214DF21720AF
:1040A00002F08AF802214DF2182002F085F8002172
:1040B0004DF2192002F080F802214DF21A2002F090
:1040C0007BF801214DF21B2002F076F802214DF21F
:1040D0001C2002F071F834214DF21D2002F06CF822
:1040E00002214DF21E2002F067F867214DF21F20D9
:1040F00002F062F802214DF2202002F05DF88421E6
:104100004DF2212002F058F802214DF2222002F057
:1041100053F8A4214DF2232002F04EF802214DF273
:10412000242002F049F8B7214DF2252002F044F88E
:1041300002214DF2262002F03FF8CF214DF2272038
:1041400002F03AF802214DF2282002F035F8DE2183
:104150004DF2292002F030F802214DF22A2002F01F
:104160002BF8F2214DF22B2002F026F802214DF21D
:104170002C2002F021F8FE214DF22D2002F01CF837
:1041800003214DF22E2002F017F810214DF22F20BE
:1041900002F012F803214DF2302002F00DF8332125
:1041A0004DF2312002F008F803214DF2322002F0E6
:1041B00003F86D214DF2332001F0FEFF00214FF492
:1041C000534001F0F9FF33214DF2013001F0F4FFCB
:1041D00000214DF2023001F0EFFF34214DF20330A7
:1041E00001F0EAFF00214DF2043001F0E5FF3A2131
:1041F0004DF2053001F0E0FF00214DF2063001F0F4
:10420000DBFF4A214DF2073001F0D6FF00214DF2CD
:10421000083001F0D1FF5C214DF2093001F0CCFFF4
:1042200000214DF20A3001F0C7FF81214DF20B3021
:1042300001F0C2FF00214DF20C3001F0BDFFA621BC
:104240004DF20D3001F0B8FF00214DF20E3001F0BB
:10425000B3FFE5214DF20F3001F0AEFF01214DF229
:10426000103001F0A9FF13214DF2113001F0A4FF2D
:1042700001214DF2123001F09FFF54214DF2133015
:1042800001F09AFF01214DF2143001F095FF8221D7
:104290004DF2153001F090FF01214DF2163001F082
:1042A0008BFFCA214DF2173001F086FF02214DF23B
:1042B000183001F081FF00214DF2193001F07CFF30
:1042C00002214DF21A3001F077FF01214DF21B302F
:1042D00001F072FF02214DF21C3001F06DFF34211C
:1042E0004DF21D3001F068FF02214DF21E3001F049
:1042F00063FF67214DF21F3001F05EFF02214DF296
:10430000203001F059FF84214DF2213001F054FF9B
:1043100002214DF2223001F04FFFA4214DF2233053
:1043200001F04AFF02214DF2243001F045FFB72190
:104330004DF2253001F040FF02214DF2263001F010
:104340003BFFCF214DF2273001F036FF02214DF225
:10435000283001F031FFDE214DF2293001F02CFF31
:1043600002214DF22A3001F027FFF2214DF22B30CD
:1043700001F022FF02214DF22C3001F01DFFFE2141
:104380004DF22D3001F018FF03214DF22E3001F0D7
:1043900013FF10214DF22F3001F00EFF03214DF2DB
:1043A000303001F009FF33214DF2313001F004FFCC
:1043B00003214DF2323001F0FFFE6D214DF233301A
:1043C00001F0FAFE00214FF4544001F0F5FE3321D4
:1043D00000E080E34DF2014001F0EEFE00214DF2DD
:1043E000024001F0E9FE34214DF2034001F0E4FE09
:1043F00000214DF2044001F0DFFE3A214DF205406C
:1044000001F0DAFE00214DF2064001F0D5FE4A210E
:104410004DF2074001F0D0FE00214DF2084001F0BE
:10442000CBFE5C214DF2094001F0C6FE00214DF2A9
:104430000A4001F0C1FE81214DF20B4001F0BCFEAB
:1044400000214DF20C4001F0B7FEA6214DF20D40C7
:1044500001F0B2FE00214DF20E4001F0ADFEE5216B
:104460004DF20F4001F0A8FE01214DF2104001F085
:10447000A3FE13214DF2114001F09EFE01214DF2E9
:10448000124001F099FE54214DF2134001F094FEC8
:1044900001214DF2144001F08FFE82214DF21540B2
:1044A00001F08AFE01214DF2164001F085FECA217D
:1044B0004DF2174001F080FE02214DF2184001F04C
:1044C0007BFE00214DF2194001F076FE02214DF2F3
:1044D0001A4001F071FE00E000E301214DF21B40A3
:1044E00001F06AFE02214DF21C4001F065FE34210C
:1044F0004DF21D4001F060FE02214DF21E4001F020
:104500005BFE67214DF21F4001F056FE02214DF285
:10451000204001F051FE84214DF2214001F04CFE7B
:1045200002214DF2224001F047FEA4214DF223402A
:1045300001F042FE02214DF2244001F03DFEB72180
:104540004DF2254001F038FE02214DF2264001F0E7
:1045500033FECF214DF2274001F02EFE02214DF215
:10456000284001F029FEDE214DF2294001F024FE11
:1045700002214DF22A4001F01FFEF2214DF22B40A4
:1045800001F01AFE02214DF22C4001F015FEFE2131
:104590004DF22D4001F010FE03214DF22E4001F0AE
:1045A0000BFE10214DF22F4001F006FE03214DF2CB
:1045B000304001F001FE33214DF2314001F0FCFDAD
:1045C00003214DF2324001F0F7FD6D214DF23340F1
:1045D00001F0F2FD00214FF4554001F0EDFD3321D3
:1045E0004DF2015001F0E8FD00214DF2025001F0C2
:1045F000E3FD34214DF2035001F0DEFD00214DF2C8
:10460000045001F0D9FD3A214DF2055001F0D4FDDE
:1046100000214DF2065001F0CFFD4A214DF2075026
:1046200001F0CAFD00214DF2085001F0C5FD5C21EA
:104630004DF2095001F0C0FD00214DF20A5001F089
:10464000BBFD81214DF20B5001F0B6FD00214DF272
:104650000C5001F0B1FDA6214DF20D5001F0ACFD62
:1046600000214DF20E5001F0A7FDE5214DF20F5053
:1046700001F0A2FD01214DF2105001F09DFD13212A
:104680004DF2115001F098FD01214DF2125001F050
:1046900093FD54214DF2135001F08EFD01214DF296
:1046A000145001F089FD82214DF2155001F084FD76
:1046B00001214DF2165001F07FFDCA214DF2175035
:1046C00001F07AFD02214DF2185001F075FD002134
:1046D0004DF2195001F070FD02214DF21A5001F017
:1046E0006BFD01214DF21B5001F066FD02214DF2E0
:1046F0001C5001F061FD34214DF21D5001F05CFDB4
:1047000002214DF21E5001F057FD67214DF21F505E
:1047100001F052FD02214DF2205001F04DFD8421A7
:104720004DF2215001F048FD02214DF2225001F0DE
:1047300043FDA4214DF2235001F03EFD02214DF234
:10474000245001F039FDB7214DF2255001F034FD20
:1047500002214DF2265001F02FFDCF214DF22750BE
:1047600001F02AFD02214DF2285001F025FDDE2145
:104770004DF2295001F020FD02214DF22A5001F0A6
:104780001BFDF2214DF22B5001F016FD02214DF2DE
:104790002C5001F011FDFE214DF22D5001F00CFDC9
:1047A00003214DF22E5001F007FD10214DF22F5044
:1047B00001F002FD03214DF2305001F0FDFC3321E8
:1047C0004DF2315001F0F8FC03214DF2325001F06E
:1047D000F3FC6D214DF2335001F0EEFC00214FF45B
:1047E000564001F0E9FC33214DF2016001F0E4FC98
:1047F00000214DF2026001F0DFFC34214DF2036034
:1048000001F0DAFC00214DF2046001F0D5FC3A2100
:104810004DF2056001F0D0FC00214DF2066001F080
:10482000CBFC4A214DF2076001F0C6FC00214DF29D
:10483000086001F0C1FC5C214DF2096001F0BCFC94
:1048400000214DF20A6001F0B7FC81214DF20B60AE
:1048500001F0B2FC00214DF20C6001F0ADFCA6218C
:104860004DF20D6001F0A8FC00214DF20E6001F048
:10487000A3FCE5214DF20F6001F09EFC01214DF2F9
:10488000106001F099FC13214DF2116001F094FCCD
:1048900001214DF2126001F08FFC54214DF21360A2
:1048A00001F08AFC01214DF2146001F085FC8221A7
:1048B0004DF2156001F080FC01214DF2166001F00F
:1048C0007BFCCA214DF2176001F076FC02214DF20B
:1048D000186001F071FC00214DF2196001F06CFCD0
:1048E00002214DF21A6001F067FC01214DF21B60BC
:1048F00001F062FC02214DF21C6001F05DFC3421EC
:104900004DF21D6001F058FC02214DF21E6001F0D5
:1049100053FC67214DF21F6001F04EFC02214DF265
:10492000206001F049FC84214DF2216001F044FC3B
:1049300002214DF2226001F03FFCA4214DF22360E0
:1049400001F03AFC02214DF2246001F035FCB72160
:104950004DF2256001F030FC02214DF2266001F09D
:104960002BFCCF214DF2276001F026FC02214DF2F5
:10497000286001F021FCDE214DF2296001F01CFCD1
:1049800002214DF22A6001F017FCF2214DF22B605A
:1049900001F012FC02214DF22C6001F00DFCFE2111
:1049A0004DF22D6001F008FC03214DF22E6001F064
:1049B00003FC10214DF22F6001F0FEFB03214DF2AC
:1049C000306001F0F9FB33214DF2316001F0F4FB6E
:1049D00003214DF2326001F0EFFB6D214DF23360A7
:1049E00001F0EAFB5521184601F0E6FBAA2120461A
:1049F00001F0E2FB5221284601F0DEFB082130469F
:104A000001F0DAFB0021384601F0D6FBCC21484604
:104A100001F0D2FB0021504601F0CEFB05214046BB
:104A200001F0CAFB70214FF4374001F0C5FB702143
:104A30004BF2017001F0C0FB01214FF4384001F04E
:104A4000BBFB03214BF6010001F0B6FB03214BF643
:104A5000020001F0B1FB03214BF6030001F0ACFBB7
:104A600002214FF43C4001F0A7FB00214BF601402E
:104A700001F0A2FB00214BF6024001F09DFBD0218A
:104A80004FF4494001F098FB02214CF6011001F06F
:104A900093FB50214CF6021001F08EFB50214CF696
:104AA000031001F089FB50214CF6041001F084FB47
:104AB00000214FF4545001F07FFB55214FF4685012
:104AC00001F07AFB4FF4885001F060FB782003F08E
:104AD0005DF94FF4245001F059FBF3E0A0F51341C8
:104AE0004FF480744FF4E06940F2022A4FF42746F5
:104AF00025397CD040F20775C91E79D04FF48877EC
:104B00004FF41C56083174D0113973D0A0F5A84168
:104B1000083970D0A0F5A8514FF4407705396BD013
:104B2000B1F5204169D0B1F5805167D0A0F58A4137
:104B300031397CD0091F7BD04045CED1E22001F035
:104B400025FB1D2001F016FB022001F013FB0420C1
:104B500001F010FB642003F019F9E02001F016FBCE
:104B6000012001F007FB0A2003F0F4F8E02001F037
:104B70000DFB032001F0FEFA0C2003F0EBF80120FE
:104B800001F004FB0A2003F0E5F8E62001F0FEFA4C
:104B90002F2001F0EFFAFF2001F0ECFAFF2001F0E6
:104BA000E9FAB02001F0F2FA202001F0E3FA002047
:104BB00001F0E0FA032001F0DDFA40F21F3001F0CD
:104BC000D9FA012001F0D6FA40F2DF1001F0D2FA52
:104BD000002001F0CFFAB42001F0D8FA042001F04F
:104BE000C9FA40F21F4001F0C5FA002007E076E064
:104BF00041E1F9E1A0E275E3FEE3FEE3FEE301F04B
:104C0000B9FA2E2001F0B6FA002001F0B3FA002024
:104C100001F0B0FA002001F0ADFA002001F0AAFA8C
:104C2000B62001F0B3FA022001F0A4FA01E0E6E3B5
:104C3000E6E34FF4037001F09DFA002001F09AFAC8
:104C4000172001F097FA152001F094FA002001F0E6
:104C500091FA002001F08EFAF02001F097FA03207B
:104C600001F088FA292001F091FAD02001F08EFAA3
:104C7000002001F07FFABE2001F088FA052001F043
:104C800079FAFE2001F076FA012001F073FA002093
:104C900001F070FA002001F06DFA002001F06AFACC
:104CA000B82001F073FA032001F064FA012001F04A
:104CB00061FABA2001F06AFA012001F05BFA64207F
:104CC00000F0F6FF0020FDF735FBFF490120C1F899
:104CD000BC025846FDF7F8FA21B0BDE8F08F47F660
:104CE000F001E52001F068FA2146012001F064FAA4
:104CF0004946022001F060FA41F23001032001F040
:104D00005BFA0021042001F057FA5146082001F017
:104D100053FA0021092001F04FFA00210A2001F086
:104D20004BFA00210C2001F047FA00210D2001F080
:104D300043FA00210F2001F03FFA0021102001F07A
:104D40003BFA0721112001F037FA0021122001F06F
:104D500033FA0021132001F02FFA0021072001F07F
:104D60002BFA41F29061102001F026FA40F227213F
:104D7000112001F021FA9D21122001F01DFA4FF4BB
:104D8000C851132001F018FA2521292001F014FA46
:104D90000D212B2001F010FA0721302001F00CFA30
:104DA00040F20331312001F007FA0321322001F0F3
:104DB00003FA40F20621352001F0FEF908213620E1
:104DC00001F0FAF940F20641372001F0F5F94FF40D
:104DD0004171382001F0F0F90721392001F0ECF998
:104DE00040F202613C2001F0E7F908213D2001F08A
:104DF000E3F90021502001F0DFF9EF21512001F00B
:104E0000DBF90021522001F0D7F940F23F11532085
:104E100001F0D2F93146602001F0CEF90121612084
:104E200001F0CAF900216A2001F0C6F900218020B2
:104E300001F0C2F90021812001F0BEF90021822099
:104E400001F0BAF90021832001F0B6F90021842095
:104E500001F0B2F90021852001F0AEF91021902077
:104E600001F0AAF94FF4C061922001F0A5F940F2D7
:104E700033110720FEE341F28F01EC2001F09CF991
:104E800041F23421EF2001F097F92146012001F091
:104E900093F94946022001F08FF941F230010320D5
:104EA00001F08AF90021042001F086F9514608201A
:104EB00001F082F90021092001F07EF900210A2089
:104EC00001F07AF901210C2001F076F900210D2082
:104ED00001F072F900210F2001F06EF9002110207D
:104EE00001F06AF90721112001F066F90021122072
:104EF00001F062F90021132001F05EF90121072081
:104F000001F05AF9322002F025FF41F290411020C1
:104F100001F052F940F22721112001F04DF9322021
:104F200002F018FF8A21122001F046F9322002F027
:104F300011FF4FF4D051132001F03EF90621292032
:104F400001F03AF90D212B2001F036F9322002F060
:104F500001FF0021202001F02FF90021212001F084
:104F60002BF9322002F0F6FE0021302001F024F966
:104F700040F20461312001F01FF940F20531322086
:104F800001F01AF90021352001F016F940F6094127
:104F9000362001F011F94FF40171372001F00CF9BE
:104FA00040F20131382001F007F92946392001F09B
:104FB00003F900213C2001F0FFF840F60A213D20D2
:104FC00001F0FAF8322002F0C5FE0021502001F075
:104FD000F3F8EF21512001F0EFF80021522001F009
:104FE000EBF840F23F114EE10021084601F0E4F8F1
:104FF0002146012001F0E0F84946022001F0DCF8EA
:1050000041F23001032001F0D7F80021042001F023
:10501000D3F85146082001F0CFF80021092001F013
:10502000CBF800210A2001F0C7F801210C2001F083
:10503000C3F800210D2001F0BFF800210F2001F07E
:10504000BBF8322002F086FE40F20111072001F089
:10505000B3F8322002F07EFE4FF48651102001F0AA
:10506000ABF80721112001F0A7F83946122001F012
:10507000A3F84FF43061132001F09EF8002129209D
:1050800001F09AF844F210012B2001F095F800216C
:10509000502001F091F8EF21512001F08DF800210E
:1050A000522001F089F840F23F11532001F084F8BA
:1050B0003146602001F080F80121612001F07CF888
:1050C00000216A2002E000000080404201F074F8F4
:1050D0000021802001F070F80021812001F06CF89F
:1050E0000021822001F068F80021832001F064F89B
:1050F0000021842001F060F80021852001F05CF897
:105100001021902001F058F80021922001F054F86D
:105110000121932001F050F83946952001F04CF818
:105120000021972001F048F80021982001F044F870
:1051300040F27311072080E341F21401E72001F0EF
:105140003BF82146012001F037F84FF400710220AE
:1051500001F032F841F23801032001F02DF85146F8
:10516000082001F029F80021092001F025F800218C
:105170000A2001F021F800210C2001F01DF8002187
:105180000D2001F019F800210F2001F015F8002181
:10519000102001F011F80721112001F00DF8002175
:1051A000122001F009F80021132001F005F8C820B1
:1051B00002F0D0FD41F29061102000F0FDFF40F2BE
:1051C0002721112000F0F8FF322002F0C3FD0C214E
:1051D000122000F0F1FF322002F0BCFD4FF400611C
:1051E000132000F0E9FF1121292000F0E5FF0B2139
:1051F0002B2000F0E1FF322002F0ACFD0021202046
:1052000000F0DAFF40F23F131946212000F0D4FFEE
:105210000021302000F0D0FF4FF48374214631206C
:1052200000F0CAFF0021322000F0C6FF4FF40171E8
:10523000352000F0C1FF41F20A61362000F0BCFFCA
:105240002946372000F0B8FF2146382000F0B4FF8F
:105250002946392000F0B0FF40F202413C2000F026
:10526000ABFF40F60F413D2000F0A6FF002150208B
:1052700000F0A2FFEF21512000F09EFF00215220FC
:1052800000F09AFF1946532000F096FF3146602047
:1052900000F092FF0121612000F08EFF00216A20C2
:1052A00000F08AFF0021802000F086FF002181208D
:1052B00000F082FF0021822000F07EFF0021832089
:1052C00000F07AFF0021842000F076FF0021852085
:1052D00000F072FF1021902000F06EFF4FF4C061CB
:1052E0009220FCE32146012000F066FF494602209F
:1052F00000F062FF41F23001032000F05DFF002169
:10530000042000F059FF40F20721082000F054FF6C
:105310000021092000F050FF00210A2000F04CFF7E
:1053200000210C2000F048FF00210D2000F044FF78
:1053300000210F2000F040FF142002F00BFD41F28D
:10534000B061102000F038FF0121112000F034FF7F
:105350000121172000F030FF4FF49C71122000F063
:105360002BFF4FF40061132000F026FF09212920B4
:1053700000F022FF09212A2000F01EFF0021A420B6
:1053800000F01AFF0021502000F016FFEF215120FD
:1053900000F012FF0021522000F00EFF40F23F11FA
:1053A000532000F009FF3146602000F005FF012185
:1053B000612000F001FF00216A2000F0FDFE0021C5
:1053C000802000F0F9FE0021812000F0F5FE002190
:1053D000822000F0F1FE0021832000F0EDFE00218C
:1053E000842000F0E9FE0021852000F0E5FE132175
:1053F000902000F0E1FE04E016E022E11EE2E5E28A
:105400009AE30021922000F0D7FE0321932000F0C0
:10541000D3FE3946952000F0CFFE40F273110720ED
:1054200000F0CAFE322008E10021072000F0C4FE8F
:10543000322002F08FFC4FF48E71122000F0BCFE7F
:105440000121A42000F0B8FE0F21082000F0B4FED6
:1054500008210A2000F0B0FE08210D2000F0ACFE6B
:105460002B462946302000F0A7FE0721312000F00E
:10547000A3FE40F20361322000F09EFE4D464946F5
:10548000332000F099FE5146342000F095FE0221B1
:10549000352000F091FE41F60F71362000F08CFEB1
:1054A0001946372000F088FE0021382000F084FEE5
:1054B0000021392000F080FE19463A2000F07CFEE1
:1054C00000213B2000F078FE07213C2000F074FE14
:1054D00000213D2000F070FE322002F03BFC012153
:1054E000072000F069FE0121172000F065FE322040
:1054F00002F030FC4FF4BD51102000F05DFE40F290
:105500001721112000F058FE4FF48F71122000F087
:1055100053FE4FF47061132000F04EFE00212A204C
:1055200000F04AFE0A21292000F046FE4FF49F7148
:10553000122000F041FE0021502000F03DFEEF213E
:10554000512000F039FE0021522000F035FE40F2DB
:105550003F11532000F030FE3146602000F02CFE59
:105560000121612000F028FE00216A2000F024FEC5
:105570000021802000F020FE0021812000F01CFE90
:105580000021822000F018FE0021832000F014FE8C
:105590000021842000F010FE0021852000F00CFE88
:1055A0001321902000F008FE3946922000F004FEFE
:1055B0000521932000F000FE0021952000F0FCFD65
:1055C0000021972000F0F8FD0021982000F0F4FD64
:1055D0002146012000F0F0FD2946022000F0ECFDFC
:1055E00041F23801032000F0E7FD0021042000F023
:1055F000E3FD00210C2000F0DFFD00210F2000F072
:10560000DBFD0021202000F0D7FD0021212000F04B
:10561000D3FD2121072000F0CFFD142002F09AFBDA
:105620006121072000F0C8FD142002F093FB40F236
:105630007311072000F0C0FD142002F08BFBFFF770
:1056400041BB0021084600F0B7FD0021084600F0EC
:10565000B3FD0021084600F0AFFD0021084600F030
:10566000ABFD0121A42000F0A7FD142002F072FB85
:10567000314600E0DDE0602000F09EFD55465146D9
:10568000082000F099FD4FF40571302000F094FDE2
:1056900043F21571312000F08FFD40F20461322099
:1056A00000F08AFD40F61661332000F085FD42F2DD
:1056B0001121342000F080FD4FF4A851352000F076
:1056C0007BFD48F20751362000F076FD41F207419C
:1056D000372000F071FD41F20341382000F06CFDED
:1056E0002021392000F068FD1A21902000F064FD8F
:1056F0000021102000F060FD0721112000F05CFD6A
:105700000021122000F058FD0021132000F054FD6C
:10571000142002F01FFB4FF4E661102000F04CFD56
:1057200040F23711112000F047FD142002F012FB67
:105730004FF4DC71122000F03FFD142002F00AFB50
:105740004FF47061132000F037FD80212A2000F013
:1057500033FD4821292000F02FFD142002F0FAFA31
:105760002146012000F028FD4946022000F024FDDA
:1057700041F23801032000F01FFD2946082000F007
:105780001BFD00210A2000F017FD00210C2000F075
:1057900013FD00210D2000F00FFD30210E2000F040
:1057A0000BFD0021502000F007FDEF21512000F0FB
:1057B00003FD0021522000F0FFFC40F23F11532076
:1057C00000F0FAFC3146602000F0F6FC0121612077
:1057D00000F0F2FC00216A2000F0EEFC1121902084
:1057E00000F0EAFC4FF4C061922000F0E5FC40F2CA
:1057F0000241932000F0E0FC0221942000F0DCFC48
:10580000142002F0A7FA0121072000F0D5FC142093
:1058100002F0A0FA6121072000F0CEFC40F27311E3
:10582000072000F0C9FC0021202000F0C5FC002169
:10583000212000F0C1FC222100207AE1002108464D
:1058400000F0BAFC0021084600F0B6FC142002F07B
:1058500081FA0021084600F0AFFC0021084600F064
:10586000ABFC0021084600F0A7FC0021084600F030
:10587000A3FC0121A42000F09FFC142002F06AFA8E
:105880003146602000F098FC40F60601082000F048
:1058900093FC40F203731946302000F08DFC012187
:1058A000312000F089FC0421322000F085FC4FF407
:1058B0008171332000F080FC3946342000F07CFCFC
:1058C00040F20311352000F077FC1F21362000F054
:1058D00073FC1946372000F06FFC0121382000F0DE
:1058E0006BFC0421392000F067FC1521902000F0AA
:1058F00063FC4FF48261102000F05EFC40F247210F
:10590000112000F059FC4FF4DE71122000F054FC1D
:105910004FF46061132000F04FFC782002F01AFA77
:105920002146012000F048FC4FF40071022000F0F5
:1059300043FC41F23001032000F03EFC08210A2024
:1059400000F03AFC00210C2000F036FC20210E2053
:1059500000F032FC00210F2000F02EFC002120205E
:1059600000F02AFC0021212000F026FC3D212A2005
:1059700000F022FC142002F0EDF92D21292000F086
:105980001BFC0021502000F017FC4DF2EF015120CC
:1059900000F012FC0021522000F00EFC40F23F11FA
:1059A000532000F009FC0021612000F005FC0021DB
:1059B0006A2000F001FC3946922000F0FDFB052131
:1059C000932000F0F9FB2146FFF7B4BB0121002032
:1059D00000F0F2FB0A2002F0BDF941F2286110202C
:1059E00000F0EAFB0E21122000F0E6FB40F6392120
:1059F000132000F0E1FB0A2002F0ACF94021112055
:105A000000F0DAFB5021152000F0D6FB0A2002F04E
:105A1000A1F91E21122000F0CFFB0A2002F09AF912
:105A20004FF4B151102000F0C7FB42F6392113208A
:105A300000F0C2FB0A2002F08DF92146012000F09F
:105A4000BBFB3946022000F0B7FB41F238010320CE
:105A500000F0B2FB5146082000F0AEFB08210A20FE
:105A600000F0AAFB0021302000F0A6FB40F202412A
:105A7000312000F0A1FB4FF48371322000F09CFB39
:105A800040F20351332000F097FB4FF48271342031
:105A900000F092FB40F20131352000F08DFB2946E9
:105AA000362000F089FB40F20531372000F084FBFE
:105AB0004FF40271382000F07FFB40F60B71392063
:105AC00000F07AFB0221412000F076FB3146602095
:105AD00000F072FB0121612000F06EFB00E0CDE0E0
